AFLY00Gr 0101045
HFDTE260518
HFFXA010
HFPLTPILOT:NKN             
HFCM2CREW2:NKN
HFGTYGLIDERTYPE:NKN             
HFGIDGLIDERID:NKN             
HFDTM100GPSDATUM:WGS84
HFRFWFIRMWAREVERSION: 1.04.17
HFRHWHARDWAREVERSION:1.00
HFFTYFRTYPE:Flytec Element Track
HFGPS:FASTRAX,IT430,48
HFPRSPRESSALTSENSOR:INTERSEMA,MS5401BM,12000
HFALGALTGPS:GEO
HFALPALTPRESSURE:ISA
HFTZNUTCOFFSET:  2.00h
I033638FXA3940SIU4143TAS
C260518113016260518004306
C4350647N01639594E TAKEOFF
C4350647N01639594E START  G35              00000000003000000000360000AREA
C4349376N01636977E TURN   G44              00000000000400000000360000AREA
C4347763N01640334E TURN   G27              00000000000400000000360000AREA
C4355282N01628017E TURN   G41              00000000014000000000360000AREA
C4346827N01639447E TURN   G10              00000000000400000000360000AREA
C4345406N01637211E TURN   G39              00000000000400000000360000AREA
C4349376N01636977E TURN   G44              00000000001000000000360000AREA
C4346541N01637904E FINISH G24              00000000000400000000360000AREA
C4346541N01637904E LANDING
F1131320212142425293132
B1131324349786N01638537EA007820086800508000
F1132020212142425293132
B1132024349786N01638536EA007820086800608000
F1132320212142425293132
B1132324349785N01638537EA007820086800508000
F1133020212142425293132
B1133024349786N01638539EA007820086800508000
F1133320212142425293132
B1133324349785N01638539EA007820086700708000
F1134020212142425293132
B1134024349784N01638539EA007830086600508000
F1134320212142425293132
B1134324349784N01638539EA007820086500408000
F1135020212142425293132
B1135024349784N01638539EA007820086400508000
F1135320212142425293132
B1135324349784N01638539EA007820086300508000
E113548STA
E113548ATS1022.1
LFLYA1 00861
B1135484349767N01638527EA007780086100908000
B1135534349749N01638521EA007770085900608000
B1135584349734N01638535EA007830086000708000
B1136034349720N01638555EA007840086000508000
B1136084349706N01638576EA007870086200508000
B1136134349690N01638597EA007900086500508000
B1136184349676N01638597EA007900086600708000
B1136234349696N01638584EA007890086700808000
B1136284349719N01638571EA007920086900908000
B1136334349737N01638551EA007960087200808000
B1136384349727N01638537EA007980087500908000
B1136434349710N01638547EA007980087600608000
B1136484349696N01638567EA008010087800508000
B1136534349683N01638589EA008020088000508000
B1136584349670N01638606EA008040088200508000
B1137034349660N01638635EA008040088200508000
B1137084349649N01638659EA008000088100608000
B1137134349633N01638678EA007980087800508000
B1137184349612N01638692EA008000087800608000
B1137234349593N01638708EA008030088100608000
B1137284349576N01638724EA008110088600708000
B1137334349566N01638750EA008200089200808000
B1137384349589N01638754EA008220089500908000
B1137434349589N01638730EA008310090700808000
B1137484349576N01638745EA008400091500408000
B1137534349602N01638763EA008430091800608000
B1137584349605N01638739EA008500092701008000
B1138034349592N01638729EA008590093600808000
B1138084349594N01638760EA008640093900608000
B1138134349620N01638748EA008700094401108000
B1138184349614N01638725EA008770095200908000
B1138234349598N01638724EA008780095600608000
B1138284349597N01638753EA008810095800508000
B1138334349622N01638774EA008850096100608000
B1138384349646N01638753EA008870096500708000
B1138434349647N01638728EA008870096500808000
B1138484349633N01638717EA008770095900708000
B1138534349620N01638739EA008650094900608000
B1138584349624N01638776EA008660094400508000
B1139034349649N01638803EA008720094700608000
B1139084349674N01638791EA008740095000808000
B1139134349668N01638770EA008770095300908000
B1139184349654N01638787EA008750095500608000
B1139234349651N01638823EA008810095900508000
B1139284349659N01638863EA008870096500508000
B1139334349686N01638869EA008880096700508000
B1139384349690N01638845EA008960097200808000
B1139434349695N01638820EA008970097400508000
B1139484349723N01638827EA008990097900508000
B1139534349718N01638857EA008970097901108000
B1139584349703N01638850EA009010098101008000
B1140034349701N01638826EA009020098200608000
B1140084349726N01638814EA008930097700708000
B1140134349740N01638850EA008830096701008000
B1140184349724N01638853EA008790096400708000
B1140234349718N01638833EA008750095900708000
B1140284349714N01638818EA008710095500708000
B1140334349703N01638800EA008640095000608000
B1140384349698N01638776EA008590094400608000
B1140434349699N01638750EA008530093800608000
B1140484349698N01638714EA008450092900508000
B1140534349695N01638679EA008360092400608000
B1140584349696N01638641EA008270091300808000
B1141034349700N01638599EA008210090500708000
B1141084349708N01638560EA008140089800808000
B1141134349714N01638520EA008060088900708000
B1141184349721N01638482EA008020088400708000
B1141234349730N01638452EA008060088400608000
B1141284349742N01638421EA008020088200808000
B1141334349752N01638390EA008000088000608000
B1141384349756N01638361EA007960087600708000
B1141434349757N01638328EA007920087200708000
B1141484349754N01638293EA007840086700708000
B1141534349751N01638255EA007810086300608000
B1141584349746N01638219EA007740085800508000
B1142034349742N01638179EA007710085300608000
B1142084349743N01638149EA007710085100608000
B1142134349742N01638116EA007630084700508000
B1142184349739N01638074EA007540084000708000
B1142234349736N01638036EA007490083300708000
B1142284349734N01637995EA007450082600608000
B1142334349731N01637955EA007430082300708000
B1142384349732N01637924EA007470082300508000
B1142434349735N01637890EA007500082600708000
B1142484349739N01637856EA007490082600608000
B1142534349739N01637818EA007460082400608000
B1142584349739N01637783EA007470082400608000
B1143034349739N01637748EA007450082200608000
B1143054349738N01637734EA007440082200608000
E114306TPC
B1143064349738N01637727EA007440082200608000
B1143074349738N01637720EA007440082200608000
B1143084349738N01637714EA007450082200508000
B1143094349738N01637707EA007450082200508000
B1143104349738N01637701EA007450082200508000
B1143114349739N01637694EA007450082200508000
B1143134349738N01637680EA007450082200508000
B1143184349737N01637648EA007510082600508000
B1143234349733N01637623EA007540082900608000
B1143284349726N01637648EA007570083001008000
B1143334349750N01637662EA007640083301008000
B1143384349757N01637631EA007650083600908000
B1143434349741N01637619EA007670083900908000
B1143484349733N01637641EA007660084000708000
B1143534349761N01637652EA007690084200708000
B1143584349774N01637618EA007720084601208000
B1144034349760N01637618EA007710084700508000
B1144084349775N01637647EA007700084600608000
B1144134349797N01637627EA007670084501208000
B1144184349792N01637600EA007670084500908000
B1144234349785N01637570EA007670084500708000
B1144284349781N01637541EA007690084500708000
B1144334349778N01637511EA007640084200608000
B1144384349769N01637486EA007620084000608000
B1144434349753N01637481EA007590083700408000
B1144484349740N01637503EA007560083400508000
B1144534349743N01637539EA007550083200408000
B1144584349755N01637574EA007560083300508000
B1145034349769N01637609EA007580083300408000
B1145084349779N01637644EA007640083800408000
B1145134349768N01637632EA007580083701108000
B1145184349792N01637627EA007580083500908000
B1145234349797N01637662EA007610083800808000
B1145284349782N01637675EA007570083800708000
F11453302121424252932
B1145334349766N01637683EA007580083700607000
F1145380212142425293132
B1145384349775N01637713EA007570083500708000
B1145434349798N01637688EA007580083501508000
B1145484349792N01637668EA007580083401108000
B1145534349781N01637642EA007560083400808000
B1145584349766N01637620EA007610083700708000
B1146034349751N01637614EA007660084000508000
B1146084349770N01637632EA007650083900808000
B1146134349776N01637600EA007680084301008000
B1146184349760N01637592EA007720084800608000
B1146234349761N01637619EA007750085300708000
B1146284349788N01637606EA007730085101308000
B1146334349791N01637575EA007770085300908000
B1146384349773N01637570EA007700085100708000
B1146434349766N01637600EA007730085100608000
B1146484349780N01637624EA007730085000508000
B1146534349790N01637597EA007720084701308000
B1146584349773N01637597EA007760085100808000
B1147034349775N01637630EA007760085200608000
B1147084349795N01637608EA007730085101708000
B1147134349786N01637583EA007770085201008000
B1147184349769N01637567EA007750085200708000
B1147234349761N01637587EA007720085200408000
B1147284349792N01637582EA007660084301508000
B1147334349791N01637551EA007660084201008000
B1147384349772N01637546EA007630084101008000
B1147434349762N01637571EA007590083900608000
B1147484349763N01637602EA007580083900508000
B1147534349760N01637635EA007570083900508000
B1147584349756N01637664EA007620084100508000
B1148034349766N01637690EA007640084000908000
B1148084349784N01637659EA007680084401408000
B1148134349771N01637644EA007700084601008000
B1148184349757N01637661EA007720084800708000
B1148234349754N01637689EA007750085000508000
B1148284349774N01637713EA007780085200608000
B1148334349782N01637684EA007750085101108000
B1148384349766N01637670EA007810085701008000
B1148434349747N01637661EA007860086300808000
F11484802121424252931
B1148484349736N01637676EA007860086400707000
F1148530212142425293132
B1148534349752N01637706EA007900086600608000
B1148584349779N01637698EA007880086601208000
B1149034349785N01637667EA007970087000908000
B1149084349777N01637635EA007980087400908000
B1149134349762N01637629EA007980087600608000
B1149184349770N01637656EA008010087800808000
B1149234349800N01637669EA008060088300408000
B1149284349822N01637645EA008120088801008000
B1149334349814N01637619EA008130089000808000
B1149384349798N01637631EA008130089200608000
B1149434349797N01637654EA008180089400708000
B1149484349824N01637651EA008210089501108000
B1149534349828N01637620EA008230089901008000
B1149584349816N01637636EA008260090100808000
B1150034349837N01637657EA008270090300708000
B1150084349859N01637633EA008330090701308000
B1150134349848N01637613EA008300090701108000
B1150184349835N01637631EA008330090900708000
B1150234349848N01637659EA008340091000708000
B1150284349875N01637665EA008420091400508000
B1150334349884N01637635EA008440091501008000
B1150384349865N01637631EA008460091900908000
B1150434349847N01637631EA008480092200808000
B1150484349832N01637650EA008470092400608000
B1150534349848N01637681EA008490092600608000
B1150584349870N01637706EA008530093100608000
B1151034349882N01637734EA008560093400908000
B1151084349866N01637746EA008590093600908000
B1151134349852N01637735EA008550093600908000
B1151184349846N01637708EA008510093200808000
B1151234349856N01637679EA008490092900408000
F11512802121424252931
B1151284349885N01637676EA008460092600507000
F1151330212142425293132
B1151334349902N01637710EA008420092300508000
B1151384349911N01637741EA008520092600508000
B1151434349918N01637776EA008540092900408000
B1151484349912N01637794EA008470092700908000
B1151534349904N01637770EA008400092100908000
B1151584349899N01637740EA008330091600808000
B1152034349892N01637710EA008400091800708000
B1152084349877N01637692EA008340091700508000
B1152134349859N01637686EA008250091200808000
B1152184349838N01637681EA008180090400708000
B1152234349820N01637666EA008110089800608000
B1152284349808N01637642EA008040089000708000
B1152334349793N01637612EA007960088100808000
B1152384349776N01637586EA008020088000908000
B1152434349760N01637568EA008030088100908000
B1152484349742N01637554EA008050088300508000
B1152534349734N01637579EA007980088200908000
B1152584349761N01637558EA007940087901508000
B1153034349757N01637526EA007930087601108000
B1153084349745N01637506EA007850087000608000
B1153134349732N01637484EA007770086300708000
B1153184349719N01637458EA007660085200808000
B1153234349702N01637427EA007540084100608000
B1153284349687N01637401EA007470082901008000
B1153334349670N01637375EA007400081900608000
B1153384349657N01637349EA007380081500908000
B1153434349647N01637329EA007380081500608000
B1153484349635N01637308EA007430081800608000
B1153534349621N01637286EA007490082200708000
B1153584349611N01637287EA007520082400908000
B1154034349629N01637316EA007490082401608000
B1154084349634N01637282EA007510082601408000
B1154134349622N01637263EA007490082500708000
B1154184349614N01637248EA007510082600608000
B1154234349602N01637233EA007530082800508000
B1154284349591N01637216EA007520082900708000
B1154334349582N01637198EA007550083100808000
B1154384349573N01637175EA007530083000708000
B1154434349561N01637154EA007480082700608000
B1154454349555N01637144EA007450082600608000
B1154464349553N01637140EA007440082500508000
E115447TPC
B1154474349550N01637137EA007440082500408000
B1154484349547N01637135EA007440082500608000
B1154494349544N01637134EA007430082400708000
B1154504349541N01637135EA007420082400608000
B1154514349538N01637138EA007400082400608000
B1154524349537N01637144EA007390082300608000
B1154534349537N01637153EA007370082200608000
B1154584349553N01637186EA007350082000708000
F115503021214212425293132
B1155034349574N01637218EA007310081500409000
B1155084349596N01637252EA007250080900409000
B1155134349616N01637285EA007230080500309000
B1155184349634N01637319EA007240080400309000
B1155234349640N01637349EA007290080600409000
B1155284349625N01637344EA007300080700809000
B1155334349626N01637319EA007360080900509000
B1155384349652N01637317EA007340081000609000
B1155434349676N01637346EA007370081300709000
B1155484349697N01637332EA007320081301309000
B1155534349681N01637332EA007290080900909000
B1155584349692N01637365EA007310080900609000
B1156034349709N01637400EA007340081000609000
B1156084349723N01637432EA007340081100409000
B1156134349735N01637465EA007330081100309000
B1156184349742N01637496EA007350081200409000
B1156234349746N01637524EA007390081300409000
B1156284349748N01637554EA007380081400409000
B1156334349750N01637585EA007410081600309000
B1156384349756N01637617EA007420081900309000
B1156434349763N01637650EA007400081800409000
B1156484349769N01637680EA007400081800309000
B1156534349773N01637711EA007370081600309000
B1156584349777N01637743EA007330081100309000
B1157034349780N01637776EA007300080800309000
B1157084349781N01637808EA007260080500409000
B1157134349775N01637839EA007210080100409000
B1157184349764N01637867EA007150079500309000
B1157234349755N01637898EA007120079000409000
B1157284349747N01637927EA007100078700509000
B1157334349738N01637954EA007100078600609000
B1157384349728N01637982EA007090078600509000
B1157434349719N01638007EA007110078700509000
B1157484349713N01638033EA007100078600609000
B1157534349706N01638056EA007100078600509000
B1157584349695N01638076EA007090078600609000
B1158034349683N01638088EA007120078700409000
B1158084349672N01638067EA007130078800509000
B1158134349660N01638058EA007100078700809000
B1158184349653N01638082EA007060078500409000
B1158234349649N01638112EA007030078300309000
B1158284349643N01638141EA007020078100409000
B1158334349636N01638169EA007010077900309000
B1158384349630N01638198EA006940077600509000
B1158434349619N01638223EA006880077100509000
B1158484349604N01638245EA006830076500409000
B1158534349590N01638267EA006810076000409000
B1158584349574N01638288EA006790075600409000
B1159034349561N01638313EA006760075400409000
B1159084349546N01638335EA006680075000409000
B1159134349522N01638362EA006570074200609000
B1159184349496N01638385EA006530073700509000
B1159234349478N01638397EA006540073300609000
B1159284349457N01638413EA006470072600609000
B1159334349432N01638434EA006370072000409000
B1159384349410N01638460EA006320071300409000
B1159434349390N01638485EA006240070500509000
B1159484349368N01638506EA006170069500509000
F1159530212142124252932
B1159534349344N01638525EA006090068600408000
F115958021214212425293132
B1159584349320N01638545EA006030067900509000
B1200034349295N01638563EA005940066900709000
F12000802121421242526293132
B1200084349268N01638583EA005850065900310000
B1200134349243N01638608EA005780065000310000
B1200184349223N01638627EA005760064500410000
B1200234349205N01638649EA005710063900410000
B1200284349188N01638672EA005660063400310000
B1200334349171N01638696EA005620063000310000
B1200384349160N01638726EA005620062900310000
B1200434349153N01638756EA005620062900310000
B1200484349150N01638785EA005640063000310000
B1200534349139N01638797EA005610062900710000
B1200584349142N01638760EA005590062800910000
B1201034349154N01638732EA005580062800710000
B1201084349162N01638704EA005590062600810000
B1201134349148N01638695EA005570062300510000
B1201184349144N01638734EA005550062200510000
B1201234349143N01638769EA005560062300410000
B1201284349139N01638799EA005590062400310000
B1201334349127N01638824EA005560062400310000
B1201384349120N01638850EA005550062300310000
B1201434349111N01638875EA005510062100410000
B1201484349104N01638903EA005500061900310000
B1201534349099N01638928EA005480061700310000
B1201584349081N01638925EA005410061400810000
B1202034349085N01638882EA005400061101110000
B1202084349091N01638843EA005380060900510000
B1202134349097N01638807EA005370060700610000
B1202184349106N01638775EA005340060500510000
B1202234349116N01638741EA005320060200610000
B1202284349125N01638703EA005280059700510000
B1202334349138N01638668EA005270059400410000
B1202384349152N01638638EA005290059300410000
B1202434349161N01638605EA005260059200510000
B1202484349174N01638574EA005230059000310000
B1202534349187N01638544EA005210058800410000
B1202584349205N01638514EA005170058400410000
B1203034349219N01638481EA005130058000310000
B1203084349230N01638447EA005090057800410000
B1203134349238N01638422EA005090057600410000
B1203184349245N01638389EA005070057400510000
F120323021214212425293132
B1203234349229N01638382EA004970056801009000
F1203280212212425293132
B1203284349220N01638413EA004950056500708000
F120333021214212425293132
B1203334349204N01638427EA004930056300509000
B1203384349193N01638399EA004860055901109000
B1203434349174N01638405EA004810055501209000
F12034802121421242526293132
B1203484349160N01638392EA004740054900410000
B1203534349148N01638380EA004690054500510000
B1203584349150N01638380EA004690054200610000
B1204034349149N01638381EA004690054200510000
B1204084349149N01638381EA004690054200510000
B1204134349149N01638382EA004690054100510000
B1204184349149N01638382EA004690054000410000
B1204234349149N01638382EA004690054000410000
B1204284349149N01638382EA004690054000410000
B1204334349149N01638382EA004690053900410000
B1204384349149N01638382EA004680053900410000
B1204434349149N01638382EA004680053900410000
G4F75353779253311D0F0EB260FCDF7177F7E58C479F7BACCAAAED3F5BC488C52
